{
  "address": "0xe7f1725E7734CE288F8367e1Bb143E90bb3F0512",
  "abi": [
    {
      "inputs": [
        {
          "internalType": "address",
          "name": "_owner",
          "type": "address"
        },
        {
          "internalType": "contract DAOToken",
          "name": "_daoToken",
          "type": "address"
        }
      ],
      "stateMutability": "nonpayable",
      "type": "constructor"
    },
    {
      "inputs": [],
      "name": "Dao_InsufficientAmount",
      "type": "error"
    },
    {
      "anonymous": false,
      "inputs": [
        {
          "indexed": true,
          "internalType": "uint256",
          "name": "proposalId",
          "type": "uint256"
        },
        {
          "indexed": true,
          "internalType": "address",
          "name": "proposer",
          "type": "address"
        },
        {
          "indexed": false,
          "internalType": "string",
          "name": "description",
          "type": "string"
        }
      ],
      "name": "NewProposal",
      "type": "event"
    },
    {
      "anonymous": false,
      "inputs": [
        {
          "indexed": true,
          "internalType": "uint256",
          "name": "proposalId",
          "type": "uint256"
        },
        {
          "indexed": true,
          "internalType": "address",
          "name": "proposer",
          "type": "address"
        },
        {
          "indexed": true,
          "internalType": "address",
          "name": "recipient",
          "type": "address"
        },
        {
          "indexed": false,
          "internalType": "uint256",
          "name": "amount",
          "type": "uint256"
        }
      ],
      "name": "ProposalExecuted",
      "type": "event"
    },
    {
      "anonymous": false,
      "inputs": [
        {
          "indexed": true,
          "internalType": "uint256",
          "name": "proposalId",
          "type": "uint256"
        },
        {
          "indexed": true,
          "internalType": "address",
          "name": "voter",
          "type": "address"
        },
        {
          "indexed": false,
          "internalType": "bool",
          "name": "support",
          "type": "bool"
        },
        {
          "indexed": false,
          "internalType": "uint256",
          "name": "voterWeight",
          "type": "uint256"
        }
      ],
      "name": "VoteEvent",
      "type": "event"
    },
    {
      "stateMutability": "payable",
      "type": "fallback"
    },
    {
      "inputs": [],
      "name": "MIN_PROPOSAL_THRESHOLD",
      "outputs": [
        {
          "internalType": "uint256",
          "name": "",
          "type": "uint256"
        }
      ],
      "stateMutability": "view",
      "type": "function"
    },
    {
      "inputs": [],
      "name": "MIN_VOTING_THRESHOLD",
      "outputs": [
        {
          "internalType": "uint256",
          "name": "",
          "type": "uint256"
        }
      ],
      "stateMutability": "view",
      "type": "function"
    },
    {
      "inputs": [
        {
          "internalType": "uint256",
          "name": "_proposalId",
          "type": "uint256"
        },
        {
          "internalType": "bool",
          "name": "_support",
          "type": "bool"
        }
      ],
      "name": "Vote",
      "outputs": [],
      "stateMutability": "nonpayable",
      "type": "function"
    },
    {
      "inputs": [
        {
          "internalType": "address",
          "name": "",
          "type": "address"
        }
      ],
      "name": "activeProposals",
      "outputs": [
        {
          "internalType": "bool",
          "name": "",
          "type": "bool"
        }
      ],
      "stateMutability": "view",
      "type": "function"
    },
    {
      "inputs": [
        {
          "internalType": "string",
          "name": "_description",
          "type": "string"
        },
        {
          "internalType": "string",
          "name": "_title",
          "type": "string"
        },
        {
          "internalType": "uint256",
          "name": "_amount",
          "type": "uint256"
        },
        {
          "internalType": "address payable",
          "name": "_recipient",
          "type": "address"
        }
      ],
      "name": "createProposal",
      "outputs": [],
      "stateMutability": "nonpayable",
      "type": "function"
    },
    {
      "inputs": [],
      "name": "daoToken",
      "outputs": [
        {
          "internalType": "contract DAOToken",
          "name": "",
          "type": "address"
        }
      ],
      "stateMutability": "view",
      "type": "function"
    },
    {
      "inputs": [
        {
          "internalType": "uint256",
          "name": "_proposalId",
          "type": "uint256"
        }
      ],
      "name": "executeProposal",
      "outputs": [],
      "stateMutability": "nonpayable",
      "type": "function"
    },
    {
      "inputs": [],
      "name": "getAllProposals",
      "outputs": [
        {
          "components": [
            {
              "internalType": "uint256",
              "name": "id",
              "type": "uint256"
            },
            {
              "internalType": "address",
              "name": "proposer",
              "type": "address"
            },
            {
              "internalType": "string",
              "name": "title",
              "type": "string"
            },
            {
              "internalType": "string",
              "name": "description",
              "type": "string"
            },
            {
              "internalType": "uint256",
              "name": "amount",
              "type": "uint256"
            },
            {
              "internalType": "address payable",
              "name": "recipient",
              "type": "address"
            },
            {
              "internalType": "uint256",
              "name": "startTime",
              "type": "uint256"
            },
            {
              "internalType": "uint256",
              "name": "endTime",
              "type": "uint256"
            },
            {
              "internalType": "uint256",
              "name": "yesVotes",
              "type": "uint256"
            },
            {
              "internalType": "uint256",
              "name": "noVotes",
              "type": "uint256"
            },
            {
              "internalType": "bool",
              "name": "executed",
              "type": "bool"
            }
          ],
          "internalType": "struct Dao.Proposal[]",
          "name": "",
          "type": "tuple[]"
        }
      ],
      "stateMutability": "view",
      "type": "function"
    },
    {
      "inputs": [],
      "name": "getOwner",
      "outputs": [
        {
          "internalType": "address",
          "name": "",
          "type": "address"
        }
      ],
      "stateMutability": "view",
      "type": "function"
    },
    {
      "inputs": [
        {
          "internalType": "uint256",
          "name": "id",
          "type": "uint256"
        }
      ],
      "name": "getProposal",
      "outputs": [
        {
          "components": [
            {
              "internalType": "uint256",
              "name": "id",
              "type": "uint256"
            },
            {
              "internalType": "address",
              "name": "proposer",
              "type": "address"
            },
            {
              "internalType": "string",
              "name": "title",
              "type": "string"
            },
            {
              "internalType": "string",
              "name": "description",
              "type": "string"
            },
            {
              "internalType": "uint256",
              "name": "amount",
              "type": "uint256"
            },
            {
              "internalType": "address payable",
              "name": "recipient",
              "type": "address"
            },
            {
              "internalType": "uint256",
              "name": "startTime",
              "type": "uint256"
            },
            {
              "internalType": "uint256",
              "name": "endTime",
              "type": "uint256"
            },
            {
              "internalType": "uint256",
              "name": "yesVotes",
              "type": "uint256"
            },
            {
              "internalType": "uint256",
              "name": "noVotes",
              "type": "uint256"
            },
            {
              "internalType": "bool",
              "name": "executed",
              "type": "bool"
            }
          ],
          "internalType": "struct Dao.Proposal",
          "name": "",
          "type": "tuple"
        }
      ],
      "stateMutability": "view",
      "type": "function"
    },
    {
      "inputs": [],
      "name": "getProposalsCount",
      "outputs": [
        {
          "internalType": "uint256",
          "name": "",
          "type": "uint256"
        }
      ],
      "stateMutability": "view",
      "type": "function"
    },
    {
      "inputs": [
        {
          "internalType": "uint256",
          "name": "_amount",
          "type": "uint256"
        }
      ],
      "name": "withdraw",
      "outputs": [],
      "stateMutability": "nonpayable",
      "type": "function"
    },
    {
      "stateMutability": "payable",
      "type": "receive"
    }
  ],
  "transactionHash": "0x29c7cc067fd16dba54046fc63e484ab9eabdc956c9d5aa9ae3540b421fa82beb",
  "args": [
    "0xf39Fd6e51aad88F6F4ce6aB8827279cffFb92266",
    "0x5FbDB2315678afecb367f032d93F642f64180aa3"
  ],
  "numDeployments": 1,
  "solcInputHash": "a35dba5e9197e0402c0085fd4d1b4a35",
  "bytecode": "0x60a06040523480156200001157600080fd5b506040516200284f3803806200284f833981810160405281019062000037919062000162565b806000806101000a81548173ffffffffffffffffffffffffffffffffffffffff021916908373ffffffffffffffffffffffffffffffffffffffff1602179055508173ffffffffffffffffffffffffffffffffffffffff1660808173ffffffffffffffffffffffffffffffffffffffff16815250505050620001a9565b600080fd5b600073ffffffffffffffffffffffffffffffffffffffff82169050919050565b6000620000e582620000b8565b9050919050565b620000f781620000d8565b81146200010357600080fd5b50565b6000815190506200011781620000ec565b92915050565b60006200012a82620000d8565b9050919050565b6200013c816200011d565b81146200014857600080fd5b50565b6000815190506200015c8162000131565b92915050565b600080604083850312156200017c576200017b620000b3565b5b60006200018c8582860162000106565b92505060206200019f858286016200014b565b9150509250929050565b60805161267c620001d360003960008181610614015281816106de0152610797015261267c6000f3fe6080604052600436106100ab5760003560e01c80638bfa1f40116100645780638bfa1f40146101c457806398e527d3146101ed578063c7f758a814610218578063cceb68f514610255578063e5ee89cc14610280578063e7f33bb6146102a9576100b2565b80630389b4bd146100b45780630d61b519146100f15780632e1a7d4d1461011a5780634914b03014610143578063791f5d231461016e578063893d20e814610199576100b2565b366100b257005b005b3480156100c057600080fd5b506100db60048036038101906100d6919061158c565b6102d4565b6040516100e891906115d4565b60405180910390f35b3480156100fd57600080fd5b5061011860048036038101906101139190611625565b6102f4565b005b34801561012657600080fd5b50610141600480360381019061013c9190611625565b610612565b005b34801561014f57600080fd5b50610158610762565b60405161016591906116b1565b60405180910390f35b34801561017a57600080fd5b50610183610786565b60405161019091906116db565b60405180910390f35b3480156101a557600080fd5b506101ae610793565b6040516101bb9190611705565b60405180910390f35b3480156101d057600080fd5b506101eb60048036038101906101e6919061174c565b6107bb565b005b3480156101f957600080fd5b50610202610b99565b60405161020f91906116db565b60405180910390f35b34801561022457600080fd5b5061023f600480360381019061023a9190611625565b610ba6565b60405161024c9190611960565b60405180910390f35b34801561026157600080fd5b5061026a610e0a565b6040516102779190611b3a565b60405180910390f35b34801561028c57600080fd5b506102a760048036038101906102a29190611cbd565b611091565b005b3480156102b557600080fd5b506102be611486565b6040516102cb91906116db565b60405180910390f35b60036020528060005260406000206000915054906101000a900460ff1681565b60006001828154811061030a57610309611d5c565b5b90600052602060002090600b0201905080600a0160009054906101000a900460ff161561036c576040517f08c379a000000000000000000000000000000000000000000000000000000000815260040161036390611e0e565b60405180910390fd5b806007015442116103b2576040517f08c379a00000000000000000000000000000000000000000000000000000000081526004016103a990611e7a565b60405180910390fd5b80600901548160080154116103fc576040517f08c379a00000000000000000000000000000000000000000000000000000000081526004016103f390611f0c565b60405180910390fd5b60008054906101000a900473ffffffffffffffffffffffffffffffffffffffff1673ffffffffffffffffffffffffffffffffffffffff1663a9059cbb8260050160009054906101000a900473ffffffffffffffffffffffffffffffffffffffff1683600401546040518363ffffffff1660e01b815260040161047f929190611f4d565b6020604051808303816000875af115801561049e573d6000803e3d6000fd5b505050506040513d601f19601f820116820180604052508101906104c29190611f8b565b50600181600a0160006101000a81548160ff0219169083151502179055506000600360008360010160009054906101000a900473ffffffffffffffffffffffffffffffffffffffff1673ffffffffffffffffffffffffffffffffffffffff1673ffffffffffffffffffffffffffffffffffffffff16815260200190815260200160002060006101000a81548160ff0219169083151502179055508060050160009054906101000a900473ffffffffffffffffffffffffffffffffffffffff1673ffffffffffffffffffffffffffffffffffffffff168160010160009054906101000a900473ffffffffffffffffffffffffffffffffffffffff1673ffffffffffffffffffffffffffffffffffffffff16837fb997b0e2f69157edeade05311a8ecba8f2064f7648fbaa7e94d607b227c127c8846004015460405161060691906116db565b60405180910390a45050565b7f000000000000000000000000000000000000000000000000000000000000000073ffffffffffffffffffffffffffffffffffffffff163373ffffffffffffffffffffffffffffffffffffffff16146106a0576040517f08c379a00000000000000000000000000000000000000000000000000000000081526004016106979061202a565b60405180910390fd5b60008054906101000a900473ffffffffffffffffffffffffffffffffffffffff1673ffffffffffffffffffffffffffffffffffffffff1663a9059cbb7f0000000000000000000000000000000000000000000000000000000000000000836040518363ffffffff1660e01b815260040161071b92919061204a565b6020604051808303816000875af115801561073a573d6000803e3d6000fd5b505050506040513d601f19601f8201168201806040525081019061075e9190611f8b565b5050565b60008054906101000a900473ffffffffffffffffffffffffffffffffffffffff1681565b683635c9adc5dea0000081565b60007f0000000000000000000000000000000000000000000000000000000000000000905090565b6001805490508210610802576040517f08c379a00000000000000000000000000000000000000000000000000000000081526004016107f9906120bf565b60405180910390fd5b670de0b6b3a764000060008054906101000a900473ffffffffffffffffffffffffffffffffffffffff1673ffffffffffffffffffffffffffffffffffffffff166370a08231336040518263ffffffff1660e01b81526004016108649190611705565b602060405180830381865afa158015610881573d6000803e3d6000fd5b505050506040513d601f19601f820116820180604052508101906108a591906120f4565b10156108dd576040517f671e065a00000000000000000000000000000000000000000000000000000000815260040160405180910390fd5b6000600183815481106108f3576108f2611d5c565b5b90600052602060002090600b020190506002600084815260200190815260200160002060003373ffffffffffffffffffffffffffffffffffffffff1673ffffffffffffffffffffffffffffffffffffffff16815260200190815260200160002060009054906101000a900460ff16156109a1576040517f08c379a00000000000000000000000000000000000000000000000000000000081526004016109989061216d565b60405180910390fd5b806006015442101580156109b9575080600701544211155b6109f8576040517f08c379a00000000000000000000000000000000000000000000000000000000081526004016109ef906121d9565b60405180910390fd5b60008060009054906101000a900473ffffffffffffffffffffffffffffffffffffffff1673ffffffffffffffffffffffffffffffffffffffff166370a08231336040518263ffffffff1660e01b8152600401610a549190611705565b602060405180830381865afa158015610a71573d6000803e3d6000fd5b505050506040513d601f19601f82011682018060405250810190610a9591906120f4565b90508215610abd5780826008016000828254610ab19190612228565b92505081905550610ad9565b80826009016000828254610ad19190612228565b925050819055505b60016002600086815260200190815260200160002060003373ffffffffffffffffffffffffffffffffffffffff1673ffffffffffffffffffffffffffffffffffffffff16815260200190815260200160002060006101000a81548160ff0219169083151502179055503373ffffffffffffffffffffffffffffffffffffffff16847fbf5f2677aa840957c662bd8f07d250bd90154d56ab90ef60eb05725e137082558584604051610b8b92919061225c565b60405180910390a350505050565b6000600180549050905090565b610bae611492565b60018281548110610bc257610bc1611d5c565b5b90600052602060002090600b020160405180610160016040529081600082015481526020016001820160009054906101000a900473ffffffffffffffffffffffffffffffffffffffff1673ffffffffffffffffffffffffffffffffffffffff1673ffffffffffffffffffffffffffffffffffffffff168152602001600282018054610c4c906122b4565b80601f0160208091040260200160405190810160405280929190818152602001828054610c78906122b4565b8015610cc55780601f10610c9a57610100808354040283529160200191610cc5565b820191906000526020600020905b815481529060010190602001808311610ca857829003601f168201915b50505050508152602001600382018054610cde906122b4565b80601f0160208091040260200160405190810160405280929190818152602001828054610d0a906122b4565b8015610d575780601f10610d2c57610100808354040283529160200191610d57565b820191906000526020600020905b815481529060010190602001808311610d3a57829003601f168201915b50505050508152602001600482015481526020016005820160009054906101000a900473ffffffffffffffffffffffffffffffffffffffff1673ffffffffffffffffffffffffffffffffffffffff1673ffffffffffffffffffffffffffffffffffffffff16815260200160068201548152602001600782015481526020016008820154815260200160098201548152602001600a820160009054906101000a900460ff1615151515815250509050919050565b60606001805480602002602001604051908101604052809291908181526020016000905b8282101561108857838290600052602060002090600b020160405180610160016040529081600082015481526020016001820160009054906101000a900473ffffffffffffffffffffffffffffffffffffffff1673ffffffffffffffffffffffffffffffffffffffff1673ffffffffffffffffffffffffffffffffffffffff168152602001600282018054610ec2906122b4565b80601f0160208091040260200160405190810160405280929190818152602001828054610eee906122b4565b8015610f3b5780601f10610f1057610100808354040283529160200191610f3b565b820191906000526020600020905b815481529060010190602001808311610f1e57829003601f168201915b50505050508152602001600382018054610f54906122b4565b80601f0160208091040260200160405190810160405280929190818152602001828054610f80906122b4565b8015610fcd5780601f10610fa257610100808354040283529160200191610fcd565b820191906000526020600020905b815481529060010190602001808311610fb057829003601f168201915b50505050508152602001600482015481526020016005820160009054906101000a900473ffffffffffffffffffffffffffffffffffffffff1673ffffffffffffffffffffffffffffffffffffffff1673ffffffffffffffffffffffffffffffffffffffff16815260200160068201548152602001600782015481526020016008820154815260200160098201548152602001600a820160009054906101000a900460ff16151515158152505081526020019060010190610e2e565b50505050905090565b683635c9adc5dea0000060008054906101000a900473ffffffffffffffffffffffffffffffffffffffff1673ffffffffffffffffffffffffffffffffffffffff166370a08231336040518263ffffffff1660e01b81526004016110f49190611705565b602060405180830381865afa158015611111573d6000803e3d6000fd5b505050506040513d601f19601f8201168201806040525081019061113591906120f4565b101561116d576040517f671e065a00000000000000000000000000000000000000000000000000000000815260040160405180910390fd5b600360003373ffffffffffffffffffffffffffffffffffffffff1673ffffffffffffffffffffffffffffffffffffffff16815260200190815260200160002060009054906101000a900460ff16156111fa576040517f08c379a00000000000000000000000000000000000000000000000000000000081526004016111f190612357565b60405180910390fd5b600060405180610160016040528060018054905081526020013373ffffffffffffffffffffffffffffffffffffffff1681526020018581526020018681526020018481526020018373ffffffffffffffffffffffffffffffffffffffff16815260200142815260200161012c426112719190612228565b8152602001600081526020016000815260200160001515815250905060018190806001815401808255809150506001900390600052602060002090600b02016000909190919091506000820151816000015560208201518160010160006101000a81548173ffffffffffffffffffffffffffffffffffffffff021916908373ffffffffffffffffffffffffffffffffffffffff160217905550604082015181600201908161131f9190612519565b5060608201518160030190816113359190612519565b506080820151816004015560a08201518160050160006101000a81548173ffffffffffffffffffffffffffffffffffffffff021916908373ffffffffffffffffffffffffffffffffffffffff16021790555060c0820151816006015560e082015181600701556101008201518160080155610120820151816009015561014082015181600a0160006101000a81548160ff02191690831515021790555050506001600360003373ffffffffffffffffffffffffffffffffffffffff1673ffffffffffffffffffffffffffffffffffffffff16815260200190815260200160002060006101000a81548160ff0219169083151502179055503373ffffffffffffffffffffffffffffffffffffffff1681600001517fec52604d01e140f3399ab5b3d380de6a94b1e77d78dc3fb61e432f9dafb0735d876040516114779190612624565b60405180910390a35050505050565b670de0b6b3a764000081565b60405180610160016040528060008152602001600073ffffffffffffffffffffffffffffffffffffffff168152602001606081526020016060815260200160008152602001600073ffffffffffffffffffffffffffffffffffffffff168152602001600081526020016000815260200160008152602001600081526020016000151581525090565b6000604051905090565b600080fd5b600080fd5b600073ffffffffffffffffffffffffffffffffffffffff82169050919050565b60006115598261152e565b9050919050565b6115698161154e565b811461157457600080fd5b50565b60008135905061158681611560565b92915050565b6000602082840312156115a2576115a1611524565b5b60006115b084828501611577565b91505092915050565b60008115159050919050565b6115ce816115b9565b82525050565b60006020820190506115e960008301846115c5565b92915050565b6000819050919050565b611602816115ef565b811461160d57600080fd5b50565b60008135905061161f816115f9565b92915050565b60006020828403121561163b5761163a611524565b5b600061164984828501611610565b91505092915050565b6000819050919050565b600061167761167261166d8461152e565b611652565b61152e565b9050919050565b60006116898261165c565b9050919050565b600061169b8261167e565b9050919050565b6116ab81611690565b82525050565b60006020820190506116c660008301846116a2565b92915050565b6116d5816115ef565b82525050565b60006020820190506116f060008301846116cc565b92915050565b6116ff8161154e565b82525050565b600060208201905061171a60008301846116f6565b92915050565b611729816115b9565b811461173457600080fd5b50565b60008135905061174681611720565b92915050565b6000806040838503121561176357611762611524565b5b600061177185828601611610565b925050602061178285828601611737565b9150509250929050565b611795816115ef565b82525050565b6117a48161154e565b82525050565b600081519050919050565b600082825260208201905092915050565b60005b838110156117e45780820151818401526020810190506117c9565b60008484015250505050565b6000601f19601f8301169050919050565b600061180c826117aa565b61181681856117b5565b93506118268185602086016117c6565b61182f816117f0565b840191505092915050565b60006118458261152e565b9050919050565b6118558161183a565b82525050565b611864816115b9565b82525050565b600061016083016000830151611883600086018261178c565b506020830151611896602086018261179b565b50604083015184820360408601526118ae8282611801565b915050606083015184820360608601526118c88282611801565b91505060808301516118dd608086018261178c565b5060a08301516118f060a086018261184c565b5060c083015161190360c086018261178c565b5060e083015161191660e086018261178c565b5061010083015161192b61010086018261178c565b5061012083015161194061012086018261178c565b5061014083015161195561014086018261185b565b508091505092915050565b6000602082019050818103600083015261197a818461186a565b905092915050565b600081519050919050565b600082825260208201905092915050565b6000819050602082019050919050565b6000610160830160008301516119c7600086018261178c565b5060208301516119da602086018261179b565b50604083015184820360408601526119f28282611801565b91505060608301518482036060860152611a0c8282611801565b9150506080830151611a21608086018261178c565b5060a0830151611a3460a086018261184c565b5060c0830151611a4760c086018261178c565b5060e0830151611a5a60e086018261178c565b50610100830151611a6f61010086018261178c565b50610120830151611a8461012086018261178c565b50610140830151611a9961014086018261185b565b508091505092915050565b6000611ab083836119ae565b905092915050565b6000602082019050919050565b6000611ad082611982565b611ada818561198d565b935083602082028501611aec8561199e565b8060005b85811015611b285784840389528151611b098582611aa4565b9450611b1483611ab8565b925060208a01995050600181019050611af0565b50829750879550505050505092915050565b60006020820190508181036000830152611b548184611ac5565b905092915050565b600080fd5b600080fd5b7f4e487b7100000000000000000000000000000000000000000000000000000000600052604160045260246000fd5b611b9e826117f0565b810181811067ffffffffffffffff82111715611bbd57611bbc611b66565b5b80604052505050565b6000611bd061151a565b9050611bdc8282611b95565b919050565b600067ffffffffffffffff821115611bfc57611bfb611b66565b5b611c05826117f0565b9050602081019050919050565b82818337600083830152505050565b6000611c34611c2f84611be1565b611bc6565b905082815260208101848484011115611c5057611c4f611b61565b5b611c5b848285611c12565b509392505050565b600082601f830112611c7857611c77611b5c565b5b8135611c88848260208601611c21565b91505092915050565b611c9a8161183a565b8114611ca557600080fd5b50565b600081359050611cb781611c91565b92915050565b60008060008060808587031215611cd757611cd6611524565b5b600085013567ffffffffffffffff811115611cf557611cf4611529565b5b611d0187828801611c63565b945050602085013567ffffffffffffffff811115611d2257611d21611529565b5b611d2e87828801611c63565b9350506040611d3f87828801611610565b9250506060611d5087828801611ca8565b91505092959194509250565b7f4e487b7100000000000000000000000000000000000000000000000000000000600052603260045260246000fd5b600082825260208201905092915050565b7f50726f706f73616c2068617320616c7265616479206265656e2065786563757460008201527f6564000000000000000000000000000000000000000000000000000000000000602082015250565b6000611df8602283611d8b565b9150611e0382611d9c565b604082019050919050565b60006020820190508181036000830152611e2781611deb565b9050919050565b7f566f74696e6720706572696f64206973207374696c6c206f6e676f696e670000600082015250565b6000611e64601e83611d8b565b9150611e6f82611e2e565b602082019050919050565b60006020820190508181036000830152611e9381611e57565b9050919050565b7f50726f706f73616c20686173206e6f742072656163686564206d616a6f72697460008201527f7920737570706f72740000000000000000000000000000000000000000000000602082015250565b6000611ef6602983611d8b565b9150611f0182611e9a565b604082019050919050565b60006020820190508181036000830152611f2581611ee9565b9050919050565b6000611f378261167e565b9050919050565b611f4781611f2c565b82525050565b6000604082019050611f626000830185611f3e565b611f6f60208301846116cc565b9392505050565b600081519050611f8581611720565b92915050565b600060208284031215611fa157611fa0611524565b5b6000611faf84828501611f76565b91505092915050565b7f4f6e6c7920746865206f776e65722063616e2063616c6c20746869732066756e60008201527f6374696f6e000000000000000000000000000000000000000000000000000000602082015250565b6000612014602583611d8b565b915061201f82611fb8565b604082019050919050565b6000602082019050818103600083015261204381612007565b9050919050565b600060408201905061205f60008301856116f6565b61206c60208301846116cc565b9392505050565b7f496e76616c69642070726f706f73616c20494400000000000000000000000000600082015250565b60006120a9601383611d8b565b91506120b482612073565b602082019050919050565b600060208201905081810360008301526120d88161209c565b9050919050565b6000815190506120ee816115f9565b92915050565b60006020828403121561210a57612109611524565b5b6000612118848285016120df565b91505092915050565b7f566f74657220616c726561647920616464656400000000000000000000000000600082015250565b6000612157601383611d8b565b915061216282612121565b602082019050919050565b600060208201905081810360008301526121868161214a565b9050919050565b7f496e76616c696420766f74696e6720706572696f640000000000000000000000600082015250565b60006121c3601583611d8b565b91506121ce8261218d565b602082019050919050565b600060208201905081810360008301526121f2816121b6565b9050919050565b7f4e487b7100000000000000000000000000000000000000000000000000000000600052601160045260246000fd5b6000612233826115ef565b915061223e836115ef565b9250828201905080821115612256576122556121f9565b5b92915050565b600060408201905061227160008301856115c5565b61227e60208301846116cc565b9392505050565b7f4e487b7100000000000000000000000000000000000000000000000000000000600052602260045260246000fd5b600060028204905060018216806122cc57607f821691505b6020821081036122df576122de612285565b5b50919050565b7f596f7520616c7265616479206861766520616e206163746976652070726f706f60008201527f73616c0000000000000000000000000000000000000000000000000000000000602082015250565b6000612341602383611d8b565b915061234c826122e5565b604082019050919050565b6000602082019050818103600083015261237081612334565b9050919050565b60008190508160005260206000209050919050565b60006020601f8301049050919050565b600082821b905092915050565b6000600883026123d97fffffffffffffffffffffffffffffffffffffffffffffffffffffffffffffffff8261239c565b6123e3868361239c565b95508019841693508086168417925050509392505050565b600061241661241161240c846115ef565b611652565b6115ef565b9050919050565b6000819050919050565b612430836123fb565b61244461243c8261241d565b8484546123a9565b825550505050565b600090565b61245961244c565b612464818484612427565b505050565b5b818110156124885761247d600082612451565b60018101905061246a565b5050565b601f8211156124cd5761249e81612377565b6124a78461238c565b810160208510156124b6578190505b6124ca6124c28561238c565b830182612469565b50505b505050565b600082821c905092915050565b60006124f0600019846008026124d2565b1980831691505092915050565b600061250983836124df565b9150826002028217905092915050565b612522826117aa565b67ffffffffffffffff81111561253b5761253a611b66565b5b61254582546122b4565b61255082828561248c565b600060209050601f8311600181146125835760008415612571578287015190505b61257b85826124fd565b8655506125e3565b601f19841661259186612377565b60005b828110156125b957848901518255600182019150602085019450602081019050612594565b868310156125d657848901516125d2601f8916826124df565b8355505b6001600288020188555050505b505050505050565b60006125f6826117aa565b6126008185611d8b565b93506126108185602086016117c6565b612619816117f0565b840191505092915050565b6000602082019050818103600083015261263e81846125eb565b90509291505056fea2646970667358221220cd08ee17a71a7be8efdb28188e3d387fbd8c79fec9f58ed7d0996f5c129d051e64736f6c63430008130033",
  "devdoc": {
    "kind": "dev",
    "methods": {},
    "version": 1
  },
  "userdoc": {
    "kind": "user",
    "methods": {},
    "version": 1
  },
  "storageLayout": {
    "storage": [
      {
        "astId": 1359,
        "contract": "contracts/Dao.sol:Dao",
        "label": "daoToken",
        "offset": 0,
        "slot": "0",
        "type": "t_contract(DAOToken)1346"
      },
      {
        "astId": 1402,
        "contract": "contracts/Dao.sol:Dao",
        "label": "proposals",
        "offset": 0,
        "slot": "1",
        "type": "t_array(t_struct(Proposal)1396_storage)dyn_storage"
      },
      {
        "astId": 1408,
        "contract": "contracts/Dao.sol:Dao",
        "label": "proposalVoters",
        "offset": 0,
        "slot": "2",
        "type": "t_mapping(t_uint256,t_mapping(t_address,t_bool))"
      },
      {
        "astId": 1412,
        "contract": "contracts/Dao.sol:Dao",
        "label": "activeProposals",
        "offset": 0,
        "slot": "3",
        "type": "t_mapping(t_address,t_bool)"
      }
    ],
    "types": {
      "t_address": {
        "encoding": "inplace",
        "label": "address",
        "numberOfBytes": "20"
      },
      "t_address_payable": {
        "encoding": "inplace",
        "label": "address payable",
        "numberOfBytes": "20"
      },
      "t_array(t_struct(Proposal)1396_storage)dyn_storage": {
        "base": "t_struct(Proposal)1396_storage",
        "encoding": "dynamic_array",
        "label": "struct Dao.Proposal[]",
        "numberOfBytes": "32"
      },
      "t_bool": {
        "encoding": "inplace",
        "label": "bool",
        "numberOfBytes": "1"
      },
      "t_contract(DAOToken)1346": {
        "encoding": "inplace",
        "label": "contract DAOToken",
        "numberOfBytes": "20"
      },
      "t_mapping(t_address,t_bool)": {
        "encoding": "mapping",
        "key": "t_address",
        "label": "mapping(address => bool)",
        "numberOfBytes": "32",
        "value": "t_bool"
      },
      "t_mapping(t_uint256,t_mapping(t_address,t_bool))": {
        "encoding": "mapping",
        "key": "t_uint256",
        "label": "mapping(uint256 => mapping(address => bool))",
        "numberOfBytes": "32",
        "value": "t_mapping(t_address,t_bool)"
      },
      "t_string_storage": {
        "encoding": "bytes",
        "label": "string",
        "numberOfBytes": "32"
      },
      "t_struct(Proposal)1396_storage": {
        "encoding": "inplace",
        "label": "struct Dao.Proposal",
        "members": [
          {
            "astId": 1375,
            "contract": "contracts/Dao.sol:Dao",
            "label": "id",
            "offset": 0,
            "slot": "0",
            "type": "t_uint256"
          },
          {
            "astId": 1377,
            "contract": "contracts/Dao.sol:Dao",
            "label": "proposer",
            "offset": 0,
            "slot": "1",
            "type": "t_address"
          },
          {
            "astId": 1379,
            "contract": "contracts/Dao.sol:Dao",
            "label": "title",
            "offset": 0,
            "slot": "2",
            "type": "t_string_storage"
          },
          {
            "astId": 1381,
            "contract": "contracts/Dao.sol:Dao",
            "label": "description",
            "offset": 0,
            "slot": "3",
            "type": "t_string_storage"
          },
          {
            "astId": 1383,
            "contract": "contracts/Dao.sol:Dao",
            "label": "amount",
            "offset": 0,
            "slot": "4",
            "type": "t_uint256"
          },
          {
            "astId": 1385,
            "contract": "contracts/Dao.sol:Dao",
            "label": "recipient",
            "offset": 0,
            "slot": "5",
            "type": "t_address_payable"
          },
          {
            "astId": 1387,
            "contract": "contracts/Dao.sol:Dao",
            "label": "startTime",
            "offset": 0,
            "slot": "6",
            "type": "t_uint256"
          },
          {
            "astId": 1389,
            "contract": "contracts/Dao.sol:Dao",
            "label": "endTime",
            "offset": 0,
            "slot": "7",
            "type": "t_uint256"
          },
          {
            "astId": 1391,
            "contract": "contracts/Dao.sol:Dao",
            "label": "yesVotes",
            "offset": 0,
            "slot": "8",
            "type": "t_uint256"
          },
          {
            "astId": 1393,
            "contract": "contracts/Dao.sol:Dao",
            "label": "noVotes",
            "offset": 0,
            "slot": "9",
            "type": "t_uint256"
          },
          {
            "astId": 1395,
            "contract": "contracts/Dao.sol:Dao",
            "label": "executed",
            "offset": 0,
            "slot": "10",
            "type": "t_bool"
          }
        ],
        "numberOfBytes": "352"
      },
      "t_uint256": {
        "encoding": "inplace",
        "label": "uint256",
        "numberOfBytes": "32"
      }
    }
  }
}