{
  "address": "0x76490fF897d311e7F2e7D7363C32bd1C30FBb1e3",
  "abi": [
    {
      "inputs": [
        {
          "internalType": "address",
          "name": "_owner",
          "type": "address"
        },
        {
          "internalType": "contract DAOToken",
          "name": "_daoToken",
          "type": "address"
        }
      ],
      "stateMutability": "nonpayable",
      "type": "constructor"
    },
    {
      "inputs": [],
      "name": "Dao_InsufficientAmount",
      "type": "error"
    },
    {
      "anonymous": false,
      "inputs": [
        {
          "indexed": true,
          "internalType": "uint256",
          "name": "proposalId",
          "type": "uint256"
        },
        {
          "indexed": true,
          "internalType": "address",
          "name": "proposer",
          "type": "address"
        },
        {
          "indexed": false,
          "internalType": "string",
          "name": "description",
          "type": "string"
        }
      ],
      "name": "NewProposal",
      "type": "event"
    },
    {
      "anonymous": false,
      "inputs": [
        {
          "indexed": true,
          "internalType": "uint256",
          "name": "proposalId",
          "type": "uint256"
        },
        {
          "indexed": true,
          "internalType": "address",
          "name": "proposer",
          "type": "address"
        },
        {
          "indexed": true,
          "internalType": "address",
          "name": "recipient",
          "type": "address"
        },
        {
          "indexed": false,
          "internalType": "uint256",
          "name": "amount",
          "type": "uint256"
        }
      ],
      "name": "ProposalExecuted",
      "type": "event"
    },
    {
      "anonymous": false,
      "inputs": [
        {
          "indexed": true,
          "internalType": "uint256",
          "name": "proposalId",
          "type": "uint256"
        },
        {
          "indexed": true,
          "internalType": "address",
          "name": "voter",
          "type": "address"
        },
        {
          "indexed": false,
          "internalType": "bool",
          "name": "support",
          "type": "bool"
        },
        {
          "indexed": false,
          "internalType": "uint256",
          "name": "voterWeight",
          "type": "uint256"
        }
      ],
      "name": "VoteEvent",
      "type": "event"
    },
    {
      "stateMutability": "payable",
      "type": "fallback"
    },
    {
      "inputs": [],
      "name": "MIN_PROPOSAL_THRESHOLD",
      "outputs": [
        {
          "internalType": "uint256",
          "name": "",
          "type": "uint256"
        }
      ],
      "stateMutability": "view",
      "type": "function"
    },
    {
      "inputs": [],
      "name": "MIN_VOTING_THRESHOLD",
      "outputs": [
        {
          "internalType": "uint256",
          "name": "",
          "type": "uint256"
        }
      ],
      "stateMutability": "view",
      "type": "function"
    },
    {
      "inputs": [
        {
          "internalType": "uint256",
          "name": "_proposalId",
          "type": "uint256"
        },
        {
          "internalType": "bool",
          "name": "_support",
          "type": "bool"
        }
      ],
      "name": "Vote",
      "outputs": [],
      "stateMutability": "nonpayable",
      "type": "function"
    },
    {
      "inputs": [
        {
          "internalType": "address",
          "name": "",
          "type": "address"
        }
      ],
      "name": "activeProposals",
      "outputs": [
        {
          "internalType": "bool",
          "name": "",
          "type": "bool"
        }
      ],
      "stateMutability": "view",
      "type": "function"
    },
    {
      "inputs": [
        {
          "internalType": "string",
          "name": "_description",
          "type": "string"
        },
        {
          "internalType": "string",
          "name": "_title",
          "type": "string"
        },
        {
          "internalType": "uint256",
          "name": "_amount",
          "type": "uint256"
        },
        {
          "internalType": "address payable",
          "name": "_recipient",
          "type": "address"
        }
      ],
      "name": "createProposal",
      "outputs": [],
      "stateMutability": "nonpayable",
      "type": "function"
    },
    {
      "inputs": [],
      "name": "daoToken",
      "outputs": [
        {
          "internalType": "contract DAOToken",
          "name": "",
          "type": "address"
        }
      ],
      "stateMutability": "view",
      "type": "function"
    },
    {
      "inputs": [
        {
          "internalType": "uint256",
          "name": "_proposalId",
          "type": "uint256"
        }
      ],
      "name": "executeProposal",
      "outputs": [],
      "stateMutability": "nonpayable",
      "type": "function"
    },
    {
      "inputs": [],
      "name": "getAllProposals",
      "outputs": [
        {
          "components": [
            {
              "internalType": "uint256",
              "name": "id",
              "type": "uint256"
            },
            {
              "internalType": "address",
              "name": "proposer",
              "type": "address"
            },
            {
              "internalType": "string",
              "name": "title",
              "type": "string"
            },
            {
              "internalType": "string",
              "name": "description",
              "type": "string"
            },
            {
              "internalType": "uint256",
              "name": "amount",
              "type": "uint256"
            },
            {
              "internalType": "address payable",
              "name": "recipient",
              "type": "address"
            },
            {
              "internalType": "uint256",
              "name": "startTime",
              "type": "uint256"
            },
            {
              "internalType": "uint256",
              "name": "endTime",
              "type": "uint256"
            },
            {
              "internalType": "uint256",
              "name": "yesVotes",
              "type": "uint256"
            },
            {
              "internalType": "uint256",
              "name": "noVotes",
              "type": "uint256"
            },
            {
              "internalType": "bool",
              "name": "executed",
              "type": "bool"
            }
          ],
          "internalType": "struct Dao.Proposal[]",
          "name": "",
          "type": "tuple[]"
        }
      ],
      "stateMutability": "view",
      "type": "function"
    },
    {
      "inputs": [],
      "name": "getOwner",
      "outputs": [
        {
          "internalType": "address",
          "name": "",
          "type": "address"
        }
      ],
      "stateMutability": "view",
      "type": "function"
    },
    {
      "inputs": [
        {
          "internalType": "uint256",
          "name": "id",
          "type": "uint256"
        }
      ],
      "name": "getProposal",
      "outputs": [
        {
          "components": [
            {
              "internalType": "uint256",
              "name": "id",
              "type": "uint256"
            },
            {
              "internalType": "address",
              "name": "proposer",
              "type": "address"
            },
            {
              "internalType": "string",
              "name": "title",
              "type": "string"
            },
            {
              "internalType": "string",
              "name": "description",
              "type": "string"
            },
            {
              "internalType": "uint256",
              "name": "amount",
              "type": "uint256"
            },
            {
              "internalType": "address payable",
              "name": "recipient",
              "type": "address"
            },
            {
              "internalType": "uint256",
              "name": "startTime",
              "type": "uint256"
            },
            {
              "internalType": "uint256",
              "name": "endTime",
              "type": "uint256"
            },
            {
              "internalType": "uint256",
              "name": "yesVotes",
              "type": "uint256"
            },
            {
              "internalType": "uint256",
              "name": "noVotes",
              "type": "uint256"
            },
            {
              "internalType": "bool",
              "name": "executed",
              "type": "bool"
            }
          ],
          "internalType": "struct Dao.Proposal",
          "name": "",
          "type": "tuple"
        }
      ],
      "stateMutability": "view",
      "type": "function"
    },
    {
      "inputs": [],
      "name": "getProposalsCount",
      "outputs": [
        {
          "internalType": "uint256",
          "name": "",
          "type": "uint256"
        }
      ],
      "stateMutability": "view",
      "type": "function"
    },
    {
      "inputs": [
        {
          "internalType": "uint256",
          "name": "_amount",
          "type": "uint256"
        }
      ],
      "name": "withdraw",
      "outputs": [],
      "stateMutability": "nonpayable",
      "type": "function"
    },
    {
      "stateMutability": "payable",
      "type": "receive"
    }
  ],
  "transactionHash": "0xacc4500aaf01a202747b46309b9979f764ed975c57c59b1c7e8a60f33eb8319f",
  "args": [
    "0x7f736235D9b05e8A8dAC7015DC6B2237Ad61de1D",
    "0xE88996B80Be29d4208bA42644a7bD406Dad80C7a"
  ],
  "numDeployments": 6,
  "solcInputHash": "a2db4fe69c8b023bbc10380e9eb0ef49",
  "bytecode": "0x60a06040523480156200001157600080fd5b506040516200278438038062002784833981810160405281019062000037919062000162565b806000806101000a81548173ffffffffffffffffffffffffffffffffffffffff021916908373ffffffffffffffffffffffffffffffffffffffff1602179055508173ffffffffffffffffffffffffffffffffffffffff1660808173ffffffffffffffffffffffffffffffffffffffff16815250505050620001a9565b600080fd5b600073ffffffffffffffffffffffffffffffffffffffff82169050919050565b6000620000e582620000b8565b9050919050565b620000f781620000d8565b81146200010357600080fd5b50565b6000815190506200011781620000ec565b92915050565b60006200012a82620000d8565b9050919050565b6200013c816200011d565b81146200014857600080fd5b50565b6000815190506200015c8162000131565b92915050565b600080604083850312156200017c576200017b620000b3565b5b60006200018c8582860162000106565b92505060206200019f858286016200014b565b9150509250929050565b6080516125b1620001d3600039600081816105db015281816106a5015261075e01526125b16000f3fe6080604052600436106100ab5760003560e01c80638bfa1f40116100645780638bfa1f40146101c457806398e527d3146101ed578063c7f758a814610218578063cceb68f514610255578063e5ee89cc14610280578063e7f33bb6146102a9576100b2565b80630389b4bd146100b45780630d61b519146100f15780632e1a7d4d1461011a5780634914b03014610143578063791f5d231461016e578063893d20e814610199576100b2565b366100b257005b005b3480156100c057600080fd5b506100db60048036038101906100d69190611553565b6102d4565b6040516100e8919061159b565b60405180910390f35b3480156100fd57600080fd5b50610118600480360381019061011391906115ec565b6102f4565b005b34801561012657600080fd5b50610141600480360381019061013c91906115ec565b6105d9565b005b34801561014f57600080fd5b50610158610729565b6040516101659190611678565b60405180910390f35b34801561017a57600080fd5b5061018361074d565b60405161019091906116a2565b60405180910390f35b3480156101a557600080fd5b506101ae61075a565b6040516101bb91906116cc565b60405180910390f35b3480156101d057600080fd5b506101eb60048036038101906101e69190611713565b610782565b005b3480156101f957600080fd5b50610202610b60565b60405161020f91906116a2565b60405180910390f35b34801561022457600080fd5b5061023f600480360381019061023a91906115ec565b610b6d565b60405161024c9190611927565b60405180910390f35b34801561026157600080fd5b5061026a610dd1565b6040516102779190611b01565b60405180910390f35b34801561028c57600080fd5b506102a760048036038101906102a29190611c84565b611058565b005b3480156102b557600080fd5b506102be61144d565b6040516102cb91906116a2565b60405180910390f35b60036020528060005260406000206000915054906101000a900460ff1681565b60006001828154811061030a57610309611d23565b5b90600052602060002090600b0201905080600a0160009054906101000a900460ff161561036c576040517f08c379a000000000000000000000000000000000000000000000000000000000815260040161036390611dd5565b60405180910390fd5b806007015442116103b2576040517f08c379a00000000000000000000000000000000000000000000000000000000081526004016103a990611e41565b60405180910390fd5b80600901548160080154111561048a5760008054906101000a900473ffffffffffffffffffffffffffffffffffffffff1673ffffffffffffffffffffffffffffffffffffffff1663a9059cbb8260050160009054906101000a900473ffffffffffffffffffffffffffffffffffffffff1683600401546040518363ffffffff1660e01b8152600401610445929190611e82565b6020604051808303816000875af1158015610464573d6000803e3d6000fd5b505050506040513d601f19601f820116820180604052508101906104889190611ec0565b505b6000600360008360010160009054906101000a900473ffffffffffffffffffffffffffffffffffffffff1673ffffffffffffffffffffffffffffffffffffffff1673ffffffffffffffffffffffffffffffffffffffff16815260200190815260200160002060006101000a81548160ff021916908315150217905550600181600a0160006101000a81548160ff0219169083151502179055508060050160009054906101000a900473ffffffffffffffffffffffffffffffffffffffff1673ffffffffffffffffffffffffffffffffffffffff168160010160009054906101000a900473ffffffffffffffffffffffffffffffffffffffff1673ffffffffffffffffffffffffffffffffffffffff16837fb997b0e2f69157edeade05311a8ecba8f2064f7648fbaa7e94d607b227c127c884600401546040516105cd91906116a2565b60405180910390a45050565b7f000000000000000000000000000000000000000000000000000000000000000073ffffffffffffffffffffffffffffffffffffffff163373ffffffffffffffffffffffffffffffffffffffff1614610667576040517f08c379a000000000000000000000000000000000000000000000000000000000815260040161065e90611f5f565b60405180910390fd5b60008054906101000a900473ffffffffffffffffffffffffffffffffffffffff1673ffffffffffffffffffffffffffffffffffffffff1663a9059cbb7f0000000000000000000000000000000000000000000000000000000000000000836040518363ffffffff1660e01b81526004016106e2929190611f7f565b6020604051808303816000875af1158015610701573d6000803e3d6000fd5b505050506040513d601f19601f820116820180604052508101906107259190611ec0565b5050565b60008054906101000a900473ffffffffffffffffffffffffffffffffffffffff1681565b683635c9adc5dea0000081565b60007f0000000000000000000000000000000000000000000000000000000000000000905090565b60018054905082106107c9576040517f08c379a00000000000000000000000000000000000000000000000000000000081526004016107c090611ff4565b60405180910390fd5b670de0b6b3a764000060008054906101000a900473ffffffffffffffffffffffffffffffffffffffff1673ffffffffffffffffffffffffffffffffffffffff166370a08231336040518263ffffffff1660e01b815260040161082b91906116cc565b602060405180830381865afa158015610848573d6000803e3d6000fd5b505050506040513d601f19601f8201168201806040525081019061086c9190612029565b10156108a4576040517f671e065a00000000000000000000000000000000000000000000000000000000815260040160405180910390fd5b6000600183815481106108ba576108b9611d23565b5b90600052602060002090600b020190506002600084815260200190815260200160002060003373ffffffffffffffffffffffffffffffffffffffff1673ffffffffffffffffffffffffffffffffffffffff16815260200190815260200160002060009054906101000a900460ff1615610968576040517f08c379a000000000000000000000000000000000000000000000000000000000815260040161095f906120a2565b60405180910390fd5b80600601544210158015610980575080600701544211155b6109bf576040517f08c379a00000000000000000000000000000000000000000000000000000000081526004016109b69061210e565b60405180910390fd5b60008060009054906101000a900473ffffffffffffffffffffffffffffffffffffffff1673ffffffffffffffffffffffffffffffffffffffff166370a08231336040518263ffffffff1660e01b8152600401610a1b91906116cc565b602060405180830381865afa158015610a38573d6000803e3d6000fd5b505050506040513d601f19601f82011682018060405250810190610a5c9190612029565b90508215610a845780826008016000828254610a78919061215d565b92505081905550610aa0565b80826009016000828254610a98919061215d565b925050819055505b60016002600086815260200190815260200160002060003373ffffffffffffffffffffffffffffffffffffffff1673ffffffffffffffffffffffffffffffffffffffff16815260200190815260200160002060006101000a81548160ff0219169083151502179055503373ffffffffffffffffffffffffffffffffffffffff16847fbf5f2677aa840957c662bd8f07d250bd90154d56ab90ef60eb05725e137082558584604051610b52929190612191565b60405180910390a350505050565b6000600180549050905090565b610b75611459565b60018281548110610b8957610b88611d23565b5b90600052602060002090600b020160405180610160016040529081600082015481526020016001820160009054906101000a900473ffffffffffffffffffffffffffffffffffffffff1673ffffffffffffffffffffffffffffffffffffffff1673ffffffffffffffffffffffffffffffffffffffff168152602001600282018054610c13906121e9565b80601f0160208091040260200160405190810160405280929190818152602001828054610c3f906121e9565b8015610c8c5780601f10610c6157610100808354040283529160200191610c8c565b820191906000526020600020905b815481529060010190602001808311610c6f57829003601f168201915b50505050508152602001600382018054610ca5906121e9565b80601f0160208091040260200160405190810160405280929190818152602001828054610cd1906121e9565b8015610d1e5780601f10610cf357610100808354040283529160200191610d1e565b820191906000526020600020905b815481529060010190602001808311610d0157829003601f168201915b50505050508152602001600482015481526020016005820160009054906101000a900473ffffffffffffffffffffffffffffffffffffffff1673ffffffffffffffffffffffffffffffffffffffff1673ffffffffffffffffffffffffffffffffffffffff16815260200160068201548152602001600782015481526020016008820154815260200160098201548152602001600a820160009054906101000a900460ff1615151515815250509050919050565b60606001805480602002602001604051908101604052809291908181526020016000905b8282101561104f57838290600052602060002090600b020160405180610160016040529081600082015481526020016001820160009054906101000a900473ffffffffffffffffffffffffffffffffffffffff1673ffffffffffffffffffffffffffffffffffffffff1673ffffffffffffffffffffffffffffffffffffffff168152602001600282018054610e89906121e9565b80601f0160208091040260200160405190810160405280929190818152602001828054610eb5906121e9565b8015610f025780601f10610ed757610100808354040283529160200191610f02565b820191906000526020600020905b815481529060010190602001808311610ee557829003601f168201915b50505050508152602001600382018054610f1b906121e9565b80601f0160208091040260200160405190810160405280929190818152602001828054610f47906121e9565b8015610f945780601f10610f6957610100808354040283529160200191610f94565b820191906000526020600020905b815481529060010190602001808311610f7757829003601f168201915b50505050508152602001600482015481526020016005820160009054906101000a900473ffffffffffffffffffffffffffffffffffffffff1673ffffffffffffffffffffffffffffffffffffffff1673ffffffffffffffffffffffffffffffffffffffff16815260200160068201548152602001600782015481526020016008820154815260200160098201548152602001600a820160009054906101000a900460ff16151515158152505081526020019060010190610df5565b50505050905090565b683635c9adc5dea0000060008054906101000a900473ffffffffffffffffffffffffffffffffffffffff1673ffffffffffffffffffffffffffffffffffffffff166370a08231336040518263ffffffff1660e01b81526004016110bb91906116cc565b602060405180830381865afa1580156110d8573d6000803e3d6000fd5b505050506040513d601f19601f820116820180604052508101906110fc9190612029565b1015611134576040517f671e065a00000000000000000000000000000000000000000000000000000000815260040160405180910390fd5b600360003373ffffffffffffffffffffffffffffffffffffffff1673ffffffffffffffffffffffffffffffffffffffff16815260200190815260200160002060009054906101000a900460ff16156111c1576040517f08c379a00000000000000000000000000000000000000000000000000000000081526004016111b89061228c565b60405180910390fd5b600060405180610160016040528060018054905081526020013373ffffffffffffffffffffffffffffffffffffffff1681526020018581526020018681526020018481526020018373ffffffffffffffffffffffffffffffffffffffff16815260200142815260200161025842611238919061215d565b8152602001600081526020016000815260200160001515815250905060018190806001815401808255809150506001900390600052602060002090600b02016000909190919091506000820151816000015560208201518160010160006101000a81548173ffffffffffffffffffffffffffffffffffffffff021916908373ffffffffffffffffffffffffffffffffffffffff16021790555060408201518160020190816112e6919061244e565b5060608201518160030190816112fc919061244e565b506080820151816004015560a08201518160050160006101000a81548173ffffffffffffffffffffffffffffffffffffffff021916908373ffffffffffffffffffffffffffffffffffffffff16021790555060c0820151816006015560e082015181600701556101008201518160080155610120820151816009015561014082015181600a0160006101000a81548160ff02191690831515021790555050506001600360003373ffffffffffffffffffffffffffffffffffffffff1673ffffffffffffffffffffffffffffffffffffffff16815260200190815260200160002060006101000a81548160ff0219169083151502179055503373ffffffffffffffffffffffffffffffffffffffff1681600001517fec52604d01e140f3399ab5b3d380de6a94b1e77d78dc3fb61e432f9dafb0735d8760405161143e9190612559565b60405180910390a35050505050565b670de0b6b3a764000081565b60405180610160016040528060008152602001600073ffffffffffffffffffffffffffffffffffffffff168152602001606081526020016060815260200160008152602001600073ffffffffffffffffffffffffffffffffffffffff168152602001600081526020016000815260200160008152602001600081526020016000151581525090565b6000604051905090565b600080fd5b600080fd5b600073ffffffffffffffffffffffffffffffffffffffff82169050919050565b6000611520826114f5565b9050919050565b61153081611515565b811461153b57600080fd5b50565b60008135905061154d81611527565b92915050565b600060208284031215611569576115686114eb565b5b60006115778482850161153e565b91505092915050565b60008115159050919050565b61159581611580565b82525050565b60006020820190506115b0600083018461158c565b92915050565b6000819050919050565b6115c9816115b6565b81146115d457600080fd5b50565b6000813590506115e6816115c0565b92915050565b600060208284031215611602576116016114eb565b5b6000611610848285016115d7565b91505092915050565b6000819050919050565b600061163e611639611634846114f5565b611619565b6114f5565b9050919050565b600061165082611623565b9050919050565b600061166282611645565b9050919050565b61167281611657565b82525050565b600060208201905061168d6000830184611669565b92915050565b61169c816115b6565b82525050565b60006020820190506116b76000830184611693565b92915050565b6116c681611515565b82525050565b60006020820190506116e160008301846116bd565b92915050565b6116f081611580565b81146116fb57600080fd5b50565b60008135905061170d816116e7565b92915050565b6000806040838503121561172a576117296114eb565b5b6000611738858286016115d7565b9250506020611749858286016116fe565b9150509250929050565b61175c816115b6565b82525050565b61176b81611515565b82525050565b600081519050919050565b600082825260208201905092915050565b60005b838110156117ab578082015181840152602081019050611790565b60008484015250505050565b6000601f19601f8301169050919050565b60006117d382611771565b6117dd818561177c565b93506117ed81856020860161178d565b6117f6816117b7565b840191505092915050565b600061180c826114f5565b9050919050565b61181c81611801565b82525050565b61182b81611580565b82525050565b60006101608301600083015161184a6000860182611753565b50602083015161185d6020860182611762565b506040830151848203604086015261187582826117c8565b9150506060830151848203606086015261188f82826117c8565b91505060808301516118a46080860182611753565b5060a08301516118b760a0860182611813565b5060c08301516118ca60c0860182611753565b5060e08301516118dd60e0860182611753565b506101008301516118f2610100860182611753565b50610120830151611907610120860182611753565b5061014083015161191c610140860182611822565b508091505092915050565b600060208201905081810360008301526119418184611831565b905092915050565b600081519050919050565b600082825260208201905092915050565b6000819050602082019050919050565b60006101608301600083015161198e6000860182611753565b5060208301516119a16020860182611762565b50604083015184820360408601526119b982826117c8565b915050606083015184820360608601526119d382826117c8565b91505060808301516119e86080860182611753565b5060a08301516119fb60a0860182611813565b5060c0830151611a0e60c0860182611753565b5060e0830151611a2160e0860182611753565b50610100830151611a36610100860182611753565b50610120830151611a4b610120860182611753565b50610140830151611a60610140860182611822565b508091505092915050565b6000611a778383611975565b905092915050565b6000602082019050919050565b6000611a9782611949565b611aa18185611954565b935083602082028501611ab385611965565b8060005b85811015611aef5784840389528151611ad08582611a6b565b9450611adb83611a7f565b925060208a01995050600181019050611ab7565b50829750879550505050505092915050565b60006020820190508181036000830152611b1b8184611a8c565b905092915050565b600080fd5b600080fd5b7f4e487b7100000000000000000000000000000000000000000000000000000000600052604160045260246000fd5b611b65826117b7565b810181811067ffffffffffffffff82111715611b8457611b83611b2d565b5b80604052505050565b6000611b976114e1565b9050611ba38282611b5c565b919050565b600067ffffffffffffffff821115611bc357611bc2611b2d565b5b611bcc826117b7565b9050602081019050919050565b82818337600083830152505050565b6000611bfb611bf684611ba8565b611b8d565b905082815260208101848484011115611c1757611c16611b28565b5b611c22848285611bd9565b509392505050565b600082601f830112611c3f57611c3e611b23565b5b8135611c4f848260208601611be8565b91505092915050565b611c6181611801565b8114611c6c57600080fd5b50565b600081359050611c7e81611c58565b92915050565b60008060008060808587031215611c9e57611c9d6114eb565b5b600085013567ffffffffffffffff811115611cbc57611cbb6114f0565b5b611cc887828801611c2a565b945050602085013567ffffffffffffffff811115611ce957611ce86114f0565b5b611cf587828801611c2a565b9350506040611d06878288016115d7565b9250506060611d1787828801611c6f565b91505092959194509250565b7f4e487b7100000000000000000000000000000000000000000000000000000000600052603260045260246000fd5b600082825260208201905092915050565b7f50726f706f73616c2068617320616c7265616479206265656e2065786563757460008201527f6564000000000000000000000000000000000000000000000000000000000000602082015250565b6000611dbf602283611d52565b9150611dca82611d63565b604082019050919050565b60006020820190508181036000830152611dee81611db2565b9050919050565b7f566f74696e6720706572696f64206973207374696c6c206f6e676f696e670000600082015250565b6000611e2b601e83611d52565b9150611e3682611df5565b602082019050919050565b60006020820190508181036000830152611e5a81611e1e565b9050919050565b6000611e6c82611645565b9050919050565b611e7c81611e61565b82525050565b6000604082019050611e976000830185611e73565b611ea46020830184611693565b9392505050565b600081519050611eba816116e7565b92915050565b600060208284031215611ed657611ed56114eb565b5b6000611ee484828501611eab565b91505092915050565b7f4f6e6c7920746865206f776e65722063616e2063616c6c20746869732066756e60008201527f6374696f6e000000000000000000000000000000000000000000000000000000602082015250565b6000611f49602583611d52565b9150611f5482611eed565b604082019050919050565b60006020820190508181036000830152611f7881611f3c565b9050919050565b6000604082019050611f9460008301856116bd565b611fa16020830184611693565b9392505050565b7f496e76616c69642070726f706f73616c20494400000000000000000000000000600082015250565b6000611fde601383611d52565b9150611fe982611fa8565b602082019050919050565b6000602082019050818103600083015261200d81611fd1565b9050919050565b600081519050612023816115c0565b92915050565b60006020828403121561203f5761203e6114eb565b5b600061204d84828501612014565b91505092915050565b7f566f74657220616c726561647920616464656400000000000000000000000000600082015250565b600061208c601383611d52565b915061209782612056565b602082019050919050565b600060208201905081810360008301526120bb8161207f565b9050919050565b7f496e76616c696420766f74696e6720706572696f640000000000000000000000600082015250565b60006120f8601583611d52565b9150612103826120c2565b602082019050919050565b60006020820190508181036000830152612127816120eb565b9050919050565b7f4e487b7100000000000000000000000000000000000000000000000000000000600052601160045260246000fd5b6000612168826115b6565b9150612173836115b6565b925082820190508082111561218b5761218a61212e565b5b92915050565b60006040820190506121a6600083018561158c565b6121b36020830184611693565b9392505050565b7f4e487b7100000000000000000000000000000000000000000000000000000000600052602260045260246000fd5b6000600282049050600182168061220157607f821691505b602082108103612214576122136121ba565b5b50919050565b7f596f7520616c7265616479206861766520616e206163746976652070726f706f60008201527f73616c0000000000000000000000000000000000000000000000000000000000602082015250565b6000612276602383611d52565b91506122818261221a565b604082019050919050565b600060208201905081810360008301526122a581612269565b9050919050565b60008190508160005260206000209050919050565b60006020601f8301049050919050565b600082821b905092915050565b60006008830261230e7fffffffffffffffffffffffffffffffffffffffffffffffffffffffffffffffff826122d1565b61231886836122d1565b95508019841693508086168417925050509392505050565b600061234b612346612341846115b6565b611619565b6115b6565b9050919050565b6000819050919050565b61236583612330565b61237961237182612352565b8484546122de565b825550505050565b600090565b61238e612381565b61239981848461235c565b505050565b5b818110156123bd576123b2600082612386565b60018101905061239f565b5050565b601f821115612402576123d3816122ac565b6123dc846122c1565b810160208510156123eb578190505b6123ff6123f7856122c1565b83018261239e565b50505b505050565b600082821c905092915050565b600061242560001984600802612407565b1980831691505092915050565b600061243e8383612414565b9150826002028217905092915050565b61245782611771565b67ffffffffffffffff8111156124705761246f611b2d565b5b61247a82546121e9565b6124858282856123c1565b600060209050601f8311600181146124b857600084156124a6578287015190505b6124b08582612432565b865550612518565b601f1984166124c6866122ac565b60005b828110156124ee578489015182556001820191506020850194506020810190506124c9565b8683101561250b5784890151612507601f891682612414565b8355505b6001600288020188555050505b505050505050565b600061252b82611771565b6125358185611d52565b935061254581856020860161178d565b61254e816117b7565b840191505092915050565b600060208201905081810360008301526125738184612520565b90509291505056fea2646970667358221220203ad384983fcfcb75a6a6ae8a527ad997d074f5e8625d70443ec072df32683864736f6c63430008130033",
  "devdoc": {
    "kind": "dev",
    "methods": {},
    "version": 1
  },
  "userdoc": {
    "kind": "user",
    "methods": {},
    "version": 1
  },
  "storageLayout": {
    "storage": [
      {
        "astId": 1359,
        "contract": "contracts/Dao.sol:Dao",
        "label": "daoToken",
        "offset": 0,
        "slot": "0",
        "type": "t_contract(DAOToken)1346"
      },
      {
        "astId": 1402,
        "contract": "contracts/Dao.sol:Dao",
        "label": "proposals",
        "offset": 0,
        "slot": "1",
        "type": "t_array(t_struct(Proposal)1396_storage)dyn_storage"
      },
      {
        "astId": 1408,
        "contract": "contracts/Dao.sol:Dao",
        "label": "proposalVoters",
        "offset": 0,
        "slot": "2",
        "type": "t_mapping(t_uint256,t_mapping(t_address,t_bool))"
      },
      {
        "astId": 1412,
        "contract": "contracts/Dao.sol:Dao",
        "label": "activeProposals",
        "offset": 0,
        "slot": "3",
        "type": "t_mapping(t_address,t_bool)"
      }
    ],
    "types": {
      "t_address": {
        "encoding": "inplace",
        "label": "address",
        "numberOfBytes": "20"
      },
      "t_address_payable": {
        "encoding": "inplace",
        "label": "address payable",
        "numberOfBytes": "20"
      },
      "t_array(t_struct(Proposal)1396_storage)dyn_storage": {
        "base": "t_struct(Proposal)1396_storage",
        "encoding": "dynamic_array",
        "label": "struct Dao.Proposal[]",
        "numberOfBytes": "32"
      },
      "t_bool": {
        "encoding": "inplace",
        "label": "bool",
        "numberOfBytes": "1"
      },
      "t_contract(DAOToken)1346": {
        "encoding": "inplace",
        "label": "contract DAOToken",
        "numberOfBytes": "20"
      },
      "t_mapping(t_address,t_bool)": {
        "encoding": "mapping",
        "key": "t_address",
        "label": "mapping(address => bool)",
        "numberOfBytes": "32",
        "value": "t_bool"
      },
      "t_mapping(t_uint256,t_mapping(t_address,t_bool))": {
        "encoding": "mapping",
        "key": "t_uint256",
        "label": "mapping(uint256 => mapping(address => bool))",
        "numberOfBytes": "32",
        "value": "t_mapping(t_address,t_bool)"
      },
      "t_string_storage": {
        "encoding": "bytes",
        "label": "string",
        "numberOfBytes": "32"
      },
      "t_struct(Proposal)1396_storage": {
        "encoding": "inplace",
        "label": "struct Dao.Proposal",
        "members": [
          {
            "astId": 1375,
            "contract": "contracts/Dao.sol:Dao",
            "label": "id",
            "offset": 0,
            "slot": "0",
            "type": "t_uint256"
          },
          {
            "astId": 1377,
            "contract": "contracts/Dao.sol:Dao",
            "label": "proposer",
            "offset": 0,
            "slot": "1",
            "type": "t_address"
          },
          {
            "astId": 1379,
            "contract": "contracts/Dao.sol:Dao",
            "label": "title",
            "offset": 0,
            "slot": "2",
            "type": "t_string_storage"
          },
          {
            "astId": 1381,
            "contract": "contracts/Dao.sol:Dao",
            "label": "description",
            "offset": 0,
            "slot": "3",
            "type": "t_string_storage"
          },
          {
            "astId": 1383,
            "contract": "contracts/Dao.sol:Dao",
            "label": "amount",
            "offset": 0,
            "slot": "4",
            "type": "t_uint256"
          },
          {
            "astId": 1385,
            "contract": "contracts/Dao.sol:Dao",
            "label": "recipient",
            "offset": 0,
            "slot": "5",
            "type": "t_address_payable"
          },
          {
            "astId": 1387,
            "contract": "contracts/Dao.sol:Dao",
            "label": "startTime",
            "offset": 0,
            "slot": "6",
            "type": "t_uint256"
          },
          {
            "astId": 1389,
            "contract": "contracts/Dao.sol:Dao",
            "label": "endTime",
            "offset": 0,
            "slot": "7",
            "type": "t_uint256"
          },
          {
            "astId": 1391,
            "contract": "contracts/Dao.sol:Dao",
            "label": "yesVotes",
            "offset": 0,
            "slot": "8",
            "type": "t_uint256"
          },
          {
            "astId": 1393,
            "contract": "contracts/Dao.sol:Dao",
            "label": "noVotes",
            "offset": 0,
            "slot": "9",
            "type": "t_uint256"
          },
          {
            "astId": 1395,
            "contract": "contracts/Dao.sol:Dao",
            "label": "executed",
            "offset": 0,
            "slot": "10",
            "type": "t_bool"
          }
        ],
        "numberOfBytes": "352"
      },
      "t_uint256": {
        "encoding": "inplace",
        "label": "uint256",
        "numberOfBytes": "32"
      }
    }
  }
}